{
  "_format": "hh-sol-artifact-1",
  "contractName": "iDeepXRulebookImmutable",
  "sourceName": "contracts/iDeepXRulebookImmutable.sol",
  "abi": [
    {
      "inputs": [
        {
          "internalType": "string",
          "name": "_ipfsCid",
          "type": "string"
        },
        {
          "internalType": "bytes32",
          "name": "_contentHash",
          "type": "bytes32"
        }
      ],
      "stateMutability": "nonpayable",
      "type": "constructor"
    },
    {
      "anonymous": false,
      "inputs": [
        {
          "indexed": true,
          "internalType": "address",
          "name": "verifier",
          "type": "address"
        },
        {
          "indexed": false,
          "internalType": "uint256",
          "name": "timestamp",
          "type": "uint256"
        }
      ],
      "name": "PlanVerified",
      "type": "event"
    },
    {
      "anonymous": false,
      "inputs": [
        {
          "indexed": false,
          "internalType": "string",
          "name": "ipfsCid",
          "type": "string"
        },
        {
          "indexed": false,
          "internalType": "bytes32",
          "name": "contentHash",
          "type": "bytes32"
        },
        {
          "indexed": false,
          "internalType": "uint256",
          "name": "timestamp",
          "type": "uint256"
        }
      ],
      "name": "RulebookDeployed",
      "type": "event"
    },
    {
      "inputs": [],
      "name": "IPFS_GATEWAY",
      "outputs": [
        {
          "internalType": "string",
          "name": "",
          "type": "string"
        }
      ],
      "stateMutability": "view",
      "type": "function"
    },
    {
      "inputs": [],
      "name": "PLAN_NAME",
      "outputs": [
        {
          "internalType": "string",
          "name": "",
          "type": "string"
        }
      ],
      "stateMutability": "view",
      "type": "function"
    },
    {
      "inputs": [],
      "name": "VERSION",
      "outputs": [
        {
          "internalType": "string",
          "name": "",
          "type": "string"
        }
      ],
      "stateMutability": "view",
      "type": "function"
    },
    {
      "inputs": [],
      "name": "contentHash",
      "outputs": [
        {
          "internalType": "bytes32",
          "name": "",
          "type": "bytes32"
        }
      ],
      "stateMutability": "view",
      "type": "function"
    },
    {
      "inputs": [],
      "name": "deployedAt",
      "outputs": [
        {
          "internalType": "uint256",
          "name": "",
          "type": "uint256"
        }
      ],
      "stateMutability": "view",
      "type": "function"
    },
    {
      "inputs": [],
      "name": "getIPFSUrl",
      "outputs": [
        {
          "internalType": "string",
          "name": "",
          "type": "string"
        }
      ],
      "stateMutability": "view",
      "type": "function"
    },
    {
      "inputs": [],
      "name": "getPlanAgeInDays",
      "outputs": [
        {
          "internalType": "uint256",
          "name": "",
          "type": "uint256"
        }
      ],
      "stateMutability": "view",
      "type": "function"
    },
    {
      "inputs": [],
      "name": "getPlanInfo",
      "outputs": [
        {
          "internalType": "string",
          "name": "_ipfsCid",
          "type": "string"
        },
        {
          "internalType": "bytes32",
          "name": "_contentHash",
          "type": "bytes32"
        },
        {
          "internalType": "uint256",
          "name": "_deployedAt",
          "type": "uint256"
        },
        {
          "internalType": "string",
          "name": "_version",
          "type": "string"
        },
        {
          "internalType": "string",
          "name": "_planName",
          "type": "string"
        },
        {
          "internalType": "string",
          "name": "_ipfsUrl",
          "type": "string"
        }
      ],
      "stateMutability": "view",
      "type": "function"
    },
    {
      "inputs": [],
      "name": "ipfsCid",
      "outputs": [
        {
          "internalType": "string",
          "name": "",
          "type": "string"
        }
      ],
      "stateMutability": "view",
      "type": "function"
    },
    {
      "inputs": [],
      "name": "isPlanCurrent",
      "outputs": [
        {
          "internalType": "bool",
          "name": "",
          "type": "bool"
        }
      ],
      "stateMutability": "view",
      "type": "function"
    },
    {
      "inputs": [
        {
          "internalType": "bytes32",
          "name": "_hash",
          "type": "bytes32"
        }
      ],
      "name": "verifyContentHash",
      "outputs": [
        {
          "internalType": "bool",
          "name": "",
          "type": "bool"
        }
      ],
      "stateMutability": "nonpayable",
      "type": "function"
    }
  ],
  "bytecode": "0x604060c08152346200034f5762000b1590813803806200001f8162000354565b938439820181838203126200034f5782516001600160401b0393908481116200034f57810191601f908082850112156200034f57835195808711620002b157602096601f19946200007685830187168a0162000354565b96828852898801948a84830101116200034f57899285846200009993016200037a565b0151908551156200030b578115620002c7578551908111620002b15760009081546001908181811c91168015620002a6575b8b82101462000292578681116200024a575b5089868311600114620001b9579282806200015a9a9896947fa06cf4006197be3fb27362c35040b797f68dc33e7bf03ba18ae80841c71e49a09c9d9460809b99978593620001ad575b501b916000199060031b1c19161790555b8187524260a0528951978896606088525180948160608a0152898901906200037a565b850152428885015201168101030190a1516107759081620003a0823960805181818161016701528181610290015261037f015260a05181818161012d015281816102b50152818161033b01526104200152f35b8b015192503862000126565b8783929316908480528b852091855b818110620002345750926080999795926200015a9b99979592827fa06cf4006197be3fb27362c35040b797f68dc33e7bf03ba18ae80841c71e49a09e9f96106200021a575b5050811b01905562000137565b8a015160001960f88460031b161c1916905538806200020d565b8b830151845592850192918d01918d01620001c8565b8380528a84208780850160051c8201928d861062000288575b0160051c019082905b8281106200027c575050620000dd565b8581550182906200026c565b9250819262000263565b634e487b7160e01b84526022600452602484fd5b90607f1690620000cb565b634e487b7160e01b600052604160045260246000fd5b865162461bcd60e51b815260048101899052601b60248201527f436f6e74656e7420686173682063616e6e6f74206265207a65726f00000000006044820152606490fd5b865162461bcd60e51b815260048101899052601860248201527f49504653204349442063616e6e6f7420626520656d70747900000000000000006044820152606490fd5b600080fd5b6040519190601f01601f191682016001600160401b03811183821017620002b157604052565b60005b8381106200038e5750506000910152565b81810151838201526020016200037d56fe60806040818152600436101561001457600080fd5b600091823560e01c9081631a896c301461044d575080633eaf5141146104025780635d36249a146103a2578063646c2e3314610368578063756ece1d1461031e5780637b914674146103015780639da44c9a146101c6578063c5cfc84014610150578063eae4c19f14610116578063f817b3cd146100e65763ffa1ad741461009b57600080fd5b346100e257816003193601126100e25780516100de916100ba826104ab565b60058252640312e302e360dc1b602083015251918291602083526020830190610522565b0390f35b5080fd5b50346100e257816003193601126100e2576100de90610103610629565b9051918291602083526020830190610522565b50346100e257816003193601126100e257602090517f00000000000000000000000000000000000000000000000000000000000000008152f35b50346100e25760203660031901126100e2576020907f0000000000000000000000000000000000000000000000000000000000000000600435149081610197575b51908152f35b80514281527fd379d4a6da0d7c95640701f9c0ed8a4d250ec60e4012bbbff41469efcce094b7843392a2610191565b50346100e257816003193601126100e257806100de61028d92516101e9816104ab565b600581526102f3602091640312e302e360dc1b838201526102e583865192610210846104ab565b601a84527934a232b2b82c1026a6269021b7b6b6b4b9b9b4b7b710283630b760311b82850152610271610241610629565b6102638a51988261025b8b945180928480880191016104ff565b83010161067d565b03601f1981018852876104dc565b610279610581565b978051998a9960c08b5260c08b0190610522565b927f0000000000000000000000000000000000000000000000000000000000000000908a01527f0000000000000000000000000000000000000000000000000000000000000000908901528782036060890152610522565b908582036080870152610522565b9083820360a0850152610522565b50346100e257816003193601126100e2576100de90610103610581565b50346100e257816003193601126100e257602090620151806103607f0000000000000000000000000000000000000000000000000000000000000000426106fc565b049051908152f35b50346100e257816003193601126100e257602090517f00000000000000000000000000000000000000000000000000000000000000008152f35b5090346103ff57806003193601126103ff576100de6020836103ed6103c5610629565b6103df8351948261025b87945180928480880191016104ff565b03601f1981018452836104dc565b51918291602083526020830190610522565b80fd5b50346100e257816003193601126100e2576020906303c267006104457f0000000000000000000000000000000000000000000000000000000000000000426106fc565b109051908152f35b919050346104a757826003193601126104a7576100de925061046e826104ab565b601a82527934a232b2b82c1026a6269021b7b6b6b4b9b9b4b7b710283630b760311b602083015251918291602083526020830190610522565b8280fd5b604081019081106001600160401b038211176104c657604052565b634e487b7160e01b600052604160045260246000fd5b601f909101601f19168101906001600160401b038211908210176104c657604052565b60005b8381106105125750506000910152565b8181015183820152602001610502565b9060209161053b815180928185528580860191016104ff565b601f01601f1916010190565b90600182811c92168015610577575b602083101461056157565b634e487b7160e01b600052602260045260246000fd5b91607f1691610556565b6040519060008281549161059483610547565b80835260019380851690811561060857506001146105bc575b506105ba925003836104dc565b565b600080805260008051602061072083398151915294602093509091905b8183106105f05750506105ba9350820101386105ad565b855488840185015294850194879450918301916105d9565b90506105ba94506020925060ff191682840152151560051b820101386105ad565b60405190606082016001600160401b038111838210176104c6576040526022825261732f60f01b6040837f68747470733a2f2f676174657761792e70696e6174612e636c6f75642f69706660208201520152565b906000916000549061068e82610547565b916001908181169081156106e957506001146106a957505050565b600080805293945091929091602091906000805160206107208339815191525b8583106106d857505050500190565b8054858401529183019181016106c9565b60ff191683525050811515909102019150565b9190820391821161070957565b634e487b7160e01b600052601160045260246000fdfe290decd9548b62a8d60345a988386fc84ba6bc95484008f6362f93160ef3e563a264697066735822122086478478eae0e550b2f792b55697c5139ca4a6cb17a09cbf12b6e205de757d5064736f6c63430008140033",
  "linkReferences": {},
  "deployedLinkReferences": {}
}