{
  "_format": "hh-sol-artifact-1",
  "contractName": "iDeepXProofFinal",
  "sourceName": "contracts/iDeepXProofFinal.sol",
  "abi": [
    {
      "inputs": [
        {
          "internalType": "address",
          "name": "_backend",
          "type": "address"
        },
        {
          "internalType": "address",
          "name": "_rulebook",
          "type": "address"
        }
      ],
      "stateMutability": "nonpayable",
      "type": "constructor"
    },
    {
      "anonymous": false,
      "inputs": [
        {
          "indexed": true,
          "internalType": "address",
          "name": "previousBackend",
          "type": "address"
        },
        {
          "indexed": true,
          "internalType": "address",
          "name": "newBackend",
          "type": "address"
        }
      ],
      "name": "BackendUpdated",
      "type": "event"
    },
    {
      "anonymous": false,
      "inputs": [
        {
          "indexed": true,
          "internalType": "address",
          "name": "previousOwner",
          "type": "address"
        },
        {
          "indexed": true,
          "internalType": "address",
          "name": "newOwner",
          "type": "address"
        }
      ],
      "name": "OwnershipTransferred",
      "type": "event"
    },
    {
      "anonymous": false,
      "inputs": [
        {
          "indexed": false,
          "internalType": "bool",
          "name": "isPaused",
          "type": "bool"
        }
      ],
      "name": "PauseStatusChanged",
      "type": "event"
    },
    {
      "anonymous": false,
      "inputs": [
        {
          "indexed": true,
          "internalType": "uint256",
          "name": "week",
          "type": "uint256"
        },
        {
          "indexed": true,
          "internalType": "address",
          "name": "finalizer",
          "type": "address"
        }
      ],
      "name": "ProofFinalized",
      "type": "event"
    },
    {
      "anonymous": false,
      "inputs": [
        {
          "indexed": true,
          "internalType": "uint256",
          "name": "week",
          "type": "uint256"
        },
        {
          "indexed": false,
          "internalType": "string",
          "name": "ipfsHash",
          "type": "string"
        },
        {
          "indexed": false,
          "internalType": "uint256",
          "name": "totalUsers",
          "type": "uint256"
        },
        {
          "indexed": false,
          "internalType": "uint256",
          "name": "totalCommissions",
          "type": "uint256"
        },
        {
          "indexed": false,
          "internalType": "uint256",
          "name": "totalProfits",
          "type": "uint256"
        },
        {
          "indexed": true,
          "internalType": "address",
          "name": "submitter",
          "type": "address"
        }
      ],
      "name": "ProofSubmitted",
      "type": "event"
    },
    {
      "inputs": [
        {
          "internalType": "uint256",
          "name": "",
          "type": "uint256"
        }
      ],
      "name": "allWeeks",
      "outputs": [
        {
          "internalType": "uint256",
          "name": "",
          "type": "uint256"
        }
      ],
      "stateMutability": "view",
      "type": "function"
    },
    {
      "inputs": [],
      "name": "backend",
      "outputs": [
        {
          "internalType": "address",
          "name": "",
          "type": "address"
        }
      ],
      "stateMutability": "view",
      "type": "function"
    },
    {
      "inputs": [
        {
          "internalType": "uint256",
          "name": "_week",
          "type": "uint256"
        }
      ],
      "name": "finalizeWeek",
      "outputs": [],
      "stateMutability": "nonpayable",
      "type": "function"
    },
    {
      "inputs": [],
      "name": "getAllProofs",
      "outputs": [
        {
          "components": [
            {
              "internalType": "uint256",
              "name": "weekTimestamp",
              "type": "uint256"
            },
            {
              "internalType": "string",
              "name": "ipfsHash",
              "type": "string"
            },
            {
              "internalType": "uint256",
              "name": "totalUsers",
              "type": "uint256"
            },
            {
              "internalType": "uint256",
              "name": "totalCommissions",
              "type": "uint256"
            },
            {
              "internalType": "uint256",
              "name": "totalProfits",
              "type": "uint256"
            },
            {
              "internalType": "address",
              "name": "submitter",
              "type": "address"
            },
            {
              "internalType": "uint256",
              "name": "submittedAt",
              "type": "uint256"
            },
            {
              "internalType": "bool",
              "name": "finalized",
              "type": "bool"
            }
          ],
          "internalType": "struct iDeepXProofFinal.WeeklyProof[]",
          "name": "",
          "type": "tuple[]"
        }
      ],
      "stateMutability": "view",
      "type": "function"
    },
    {
      "inputs": [],
      "name": "getAllWeeks",
      "outputs": [
        {
          "internalType": "uint256[]",
          "name": "",
          "type": "uint256[]"
        }
      ],
      "stateMutability": "view",
      "type": "function"
    },
    {
      "inputs": [
        {
          "internalType": "uint256",
          "name": "_week",
          "type": "uint256"
        }
      ],
      "name": "getIPFSUrl",
      "outputs": [
        {
          "internalType": "string",
          "name": "",
          "type": "string"
        }
      ],
      "stateMutability": "view",
      "type": "function"
    },
    {
      "inputs": [
        {
          "internalType": "uint256",
          "name": "_count",
          "type": "uint256"
        }
      ],
      "name": "getLatestProofs",
      "outputs": [
        {
          "components": [
            {
              "internalType": "uint256",
              "name": "weekTimestamp",
              "type": "uint256"
            },
            {
              "internalType": "string",
              "name": "ipfsHash",
              "type": "string"
            },
            {
              "internalType": "uint256",
              "name": "totalUsers",
              "type": "uint256"
            },
            {
              "internalType": "uint256",
              "name": "totalCommissions",
              "type": "uint256"
            },
            {
              "internalType": "uint256",
              "name": "totalProfits",
              "type": "uint256"
            },
            {
              "internalType": "address",
              "name": "submitter",
              "type": "address"
            },
            {
              "internalType": "uint256",
              "name": "submittedAt",
              "type": "uint256"
            },
            {
              "internalType": "bool",
              "name": "finalized",
              "type": "bool"
            }
          ],
          "internalType": "struct iDeepXProofFinal.WeeklyProof[]",
          "name": "",
          "type": "tuple[]"
        }
      ],
      "stateMutability": "view",
      "type": "function"
    },
    {
      "inputs": [],
      "name": "getRulebookInfo",
      "outputs": [
        {
          "internalType": "address",
          "name": "rulebookAddress",
          "type": "address"
        },
        {
          "internalType": "string",
          "name": "ipfsCid",
          "type": "string"
        },
        {
          "internalType": "bytes32",
          "name": "contentHash",
          "type": "bytes32"
        },
        {
          "internalType": "uint256",
          "name": "deployedAt",
          "type": "uint256"
        }
      ],
      "stateMutability": "view",
      "type": "function"
    },
    {
      "inputs": [],
      "name": "getStatistics",
      "outputs": [
        {
          "internalType": "uint256",
          "name": "totalProofs",
          "type": "uint256"
        },
        {
          "internalType": "uint256",
          "name": "totalUsersAllTime",
          "type": "uint256"
        },
        {
          "internalType": "uint256",
          "name": "totalCommissionsAllTime",
          "type": "uint256"
        },
        {
          "internalType": "uint256",
          "name": "totalProfitsAllTime",
          "type": "uint256"
        },
        {
          "internalType": "uint256",
          "name": "totalFinalized",
          "type": "uint256"
        }
      ],
      "stateMutability": "view",
      "type": "function"
    },
    {
      "inputs": [
        {
          "internalType": "uint256",
          "name": "_week",
          "type": "uint256"
        }
      ],
      "name": "getWeeklyProof",
      "outputs": [
        {
          "components": [
            {
              "internalType": "uint256",
              "name": "weekTimestamp",
              "type": "uint256"
            },
            {
              "internalType": "string",
              "name": "ipfsHash",
              "type": "string"
            },
            {
              "internalType": "uint256",
              "name": "totalUsers",
              "type": "uint256"
            },
            {
              "internalType": "uint256",
              "name": "totalCommissions",
              "type": "uint256"
            },
            {
              "internalType": "uint256",
              "name": "totalProfits",
              "type": "uint256"
            },
            {
              "internalType": "address",
              "name": "submitter",
              "type": "address"
            },
            {
              "internalType": "uint256",
              "name": "submittedAt",
              "type": "uint256"
            },
            {
              "internalType": "bool",
              "name": "finalized",
              "type": "bool"
            }
          ],
          "internalType": "struct iDeepXProofFinal.WeeklyProof",
          "name": "",
          "type": "tuple"
        }
      ],
      "stateMutability": "view",
      "type": "function"
    },
    {
      "inputs": [
        {
          "internalType": "uint256",
          "name": "_week",
          "type": "uint256"
        }
      ],
      "name": "hasProof",
      "outputs": [
        {
          "internalType": "bool",
          "name": "",
          "type": "bool"
        }
      ],
      "stateMutability": "view",
      "type": "function"
    },
    {
      "inputs": [],
      "name": "owner",
      "outputs": [
        {
          "internalType": "address",
          "name": "",
          "type": "address"
        }
      ],
      "stateMutability": "view",
      "type": "function"
    },
    {
      "inputs": [],
      "name": "pause",
      "outputs": [],
      "stateMutability": "nonpayable",
      "type": "function"
    },
    {
      "inputs": [],
      "name": "paused",
      "outputs": [
        {
          "internalType": "bool",
          "name": "",
          "type": "bool"
        }
      ],
      "stateMutability": "view",
      "type": "function"
    },
    {
      "inputs": [],
      "name": "rulebook",
      "outputs": [
        {
          "internalType": "contract iDeepXRulebookImmutable",
          "name": "",
          "type": "address"
        }
      ],
      "stateMutability": "view",
      "type": "function"
    },
    {
      "inputs": [
        {
          "internalType": "address",
          "name": "_newBackend",
          "type": "address"
        }
      ],
      "name": "setBackend",
      "outputs": [],
      "stateMutability": "nonpayable",
      "type": "function"
    },
    {
      "inputs": [
        {
          "internalType": "uint256",
          "name": "_week",
          "type": "uint256"
        },
        {
          "internalType": "string",
          "name": "_ipfsHash",
          "type": "string"
        },
        {
          "internalType": "uint256",
          "name": "_totalUsers",
          "type": "uint256"
        },
        {
          "internalType": "uint256",
          "name": "_totalCommissions",
          "type": "uint256"
        },
        {
          "internalType": "uint256",
          "name": "_totalProfits",
          "type": "uint256"
        }
      ],
      "name": "submitWeeklyProof",
      "outputs": [],
      "stateMutability": "nonpayable",
      "type": "function"
    },
    {
      "inputs": [],
      "name": "totalProofsSubmitted",
      "outputs": [
        {
          "internalType": "uint256",
          "name": "",
          "type": "uint256"
        }
      ],
      "stateMutability": "view",
      "type": "function"
    },
    {
      "inputs": [
        {
          "internalType": "address",
          "name": "_newOwner",
          "type": "address"
        }
      ],
      "name": "transferOwnership",
      "outputs": [],
      "stateMutability": "nonpayable",
      "type": "function"
    },
    {
      "inputs": [],
      "name": "unpause",
      "outputs": [],
      "stateMutability": "nonpayable",
      "type": "function"
    },
    {
      "inputs": [
        {
          "internalType": "uint256",
          "name": "",
          "type": "uint256"
        }
      ],
      "name": "weeklyProofs",
      "outputs": [
        {
          "internalType": "uint256",
          "name": "weekTimestamp",
          "type": "uint256"
        },
        {
          "internalType": "string",
          "name": "ipfsHash",
          "type": "string"
        },
        {
          "internalType": "uint256",
          "name": "totalUsers",
          "type": "uint256"
        },
        {
          "internalType": "uint256",
          "name": "totalCommissions",
          "type": "uint256"
        },
        {
          "internalType": "uint256",
          "name": "totalProfits",
          "type": "uint256"
        },
        {
          "internalType": "address",
          "name": "submitter",
          "type": "address"
        },
        {
          "internalType": "uint256",
          "name": "submittedAt",
          "type": "uint256"
        },
        {
          "internalType": "bool",
          "name": "finalized",
          "type": "bool"
        }
      ],
      "stateMutability": "view",
      "type": "function"
    }
  ],
  "bytecode": "0x6080346200015457601f6200197738819003918201601f19168301916001600160401b038311848410176200015957808492604094855283398101031262000154576200005a602062000052836200016f565b92016200016f565b6001600160a01b0391821691908215620001055716908115620000b55760018060a01b03199033826000541617600055816001541617600155600254161760025560ff19600654166006556040516117f29081620001858239f35b60405162461bcd60e51b815260206004820152602260248201527f69446565705850726f6f6646696e616c3a20696e76616c69642072756c65626f6044820152616f6b60f01b6064820152608490fd5b60405162461bcd60e51b815260206004820152602160248201527f69446565705850726f6f6646696e616c3a20696e76616c6964206261636b656e6044820152601960fa1b6064820152608490fd5b600080fd5b634e487b7160e01b600052604160045260246000fd5b51906001600160a01b0382168203620001545756fe608080604052600436101561001357600080fd5b60003560e01c908163099e4133146112cf57508063146c5a6b146112365780631d6b876a14611198578063372d6b27146110705780633f4ba83a1461102557806354d7ba3f14610f49578063555cde8f14610f125780635c7782f414610ed95780635c975abb14610eb65780635cb2b9ae14610df2578063671f934914610dd45780638456cb5914610d86578063848e96b814610c565780638da5cb5b14610c2d5780638f287a4a146106f7578063a0c44cd814610554578063adc5d1451461052b578063d8ac1370146103c7578063da7fc24f1461034a578063e75108cd146101d15763f2fde38b1461010657600080fd5b346101cc5760203660031901126101cc576004356001600160a01b03818116918290036101cc576000549081169061013f8233146116f6565b61014a831515611750565b818314610188576001600160a01b031916821760009081557f8be0079c531659141344cd1fd0a4f28419497f9722a3daafe3b4186f6b6457e09080a3005b60405162461bcd60e51b815260206004820152601c60248201527b34a232b2b82c283937b7b32334b730b61d1039b0b6b29037bbb732b960211b6044820152606490fd5b600080fd5b346101cc576020806003193601126101cc576004359081156102fa5760045491828111156102f4575081905b61020682611685565b9260005b838110610223576040518061021f87826114c0565b0390f35b838203908282116102de5761024361023e826102d9946116e9565b611522565b9054600391821b1c60005280855260ff60076040600020604051936102678561132d565b815485526102776001830161136c565b858a01526002820154604086015281015460608501526004810154608085015260058101546001600160a01b031660a0850152600681015460c0850152015416151560e08201526102c882886116d5565b526102d381876116d5565b506115ca565b61020a565b634e487b7160e01b600052601160045260246000fd5b906101fd565b6084906040519062461bcd60e51b82526004820152602360248201527f69446565705850726f6f6646696e616c3a20636f756e74206d7573742062652060448201526203e20360ec1b6064820152fd5b346101cc5760203660031901126101cc576004356001600160a01b03818116918290036101cc57610380816000541633146116f6565b61038b821515611750565b600180546001600160a01b031981168417909155167f37f6c561371bb449a598aaf7e5528fc87ad233e82669756cd67fec9c5f665a7b600080a3005b346101cc576020806003193601126101cc57600054600435919061040090336001600160a01b039182161490811561051d575b5061156e565b81600052600381526104196001604060002001546112f3565b156104ca57816000526003815260ff6007604060002001541661047a5760039082600052526007604060002001600160ff1982541617905533907f935b006f338f3b6d2093bec10c3532303be1e70830a27094ce27b4950bdefd34600080a3005b6084906040519062461bcd60e51b82526004820152602360248201527f69446565705850726f6f6646696e616c3a20616c72656164792066696e616c696044820152621e995960ea1b6064820152fd5b6084906040519062461bcd60e51b82526004820152602660248201527f69446565705850726f6f6646696e616c3a2070726f6f6620646f6573206e6f7460448201526508195e1a5cdd60d21b6064820152fd5b9050600154163314846103fa565b346101cc5760003660031901126101cc576002546040516001600160a01b039091168152602090f35b346101cc5760003660031901126101cc57600254604051631ee4519d60e21b8152906001600160a01b0316600082600481845afa9182156106415760009261067c575b5060405163646c2e3360e01b81526020928382600481865afa9182156106415760009261064d575b5060405163eae4c19f60e01b8152908482600481875afa91821561064157600092610610575b5061060190608060405196879687528601526080850190611435565b91604084015260608301520390f35b9091508481813d831161063a575b6106288183611349565b810103126101cc5751906106016105e5565b503d61061e565b6040513d6000823e3d90fd5b9091508381813d8311610675575b6106658183611349565b810103126101cc575190846105bf565b503d61065b565b9091503d806000833e61068f8183611349565b8101906020818303126101cc578051906001600160401b0382116101cc570181601f820112156101cc5780516106c481611553565b926106d26040519485611349565b818452602082840101116101cc576106f09160208085019101611412565b9082610597565b346101cc5760a03660031901126101cc576024356001600160401b0381116101cc57366023820112156101cc57806004013561073281611553565b916107406040519384611349565b81835236602483830101116101cc578160009260246020930183860137830101526000546001600160a01b031633148015610c19575b61077f9061156e565b60ff60065416610bc85760043515610b7257805115610b235760443515610acc5760043560005260036020526107bc6001604060002001546112f3565b15610a8357600435600052600360205260ff60076040600020015416610a26575b6040516107e98161132d565b60043581528160208201526044356040820152606435606082015260843560808201523360a08201524260c0820152600060e08201526004356000526003602052604060002081518155602082015180519060018060401b038211610a105761085560018401546112f3565b601f81116109c9575b50602090601f831160011461095457918060e09492600794600092610949575b50508160011b916000199060031b1c19161760018201555b6040840151600282015560608401516003820155608084015160048201556005810160018060a01b0360a08601511660018060a01b031982541617905560c0840151600682015501910151151560ff8019835416911617905561090460405191608083526080830190611435565b6044356020830152606435604083015260843560608301527f014223bdbc0f3378701209293c54421cde4ea42d3fcb8a126f136ef482976ac4339280600435930390a3005b01519050878061087e565b906001840160005260206000209160005b601f19851681106109b157509260e0949260019260079583601f19811610610998575b505050811b016001820155610896565b015160001960f88460031b161c19169055878080610988565b91926020600181928685015181550194019201610965565b600184016000526020600020601f840160051c810160208510610a09575b601f830160051c820181106109fd57505061085e565b600081556001016109e7565b50806109e7565b634e487b7160e01b600052604160045260246000fd5b60405162461bcd60e51b815260206004820152602f60248201527f69446565705850726f6f6646696e616c3a2063616e6e6f74207570646174652060448201526e3334b730b634bd32b210383937b7b360891b6064820152608490fd5b600454600160401b811015610a1057806001610aa29201600455611522565b81549060031b90600435821b91600019901b1916179055610ac46005546115ca565b6005556107dd565b60405162461bcd60e51b815260206004820152602960248201527f69446565705850726f6f6646696e616c3a20746f74616c207573657273206d7560448201526807374206265203e20360bc1b6064820152608490fd5b60405162461bcd60e51b815260206004820152602160248201527f69446565705850726f6f6646696e616c3a20656d7074792049504653206861736044820152600d60fb1b6064820152608490fd5b60405162461bcd60e51b815260206004820152602860248201527f69446565705850726f6f6646696e616c3a20696e76616c6964207765656b20746044820152670696d657374616d760c41b6064820152608490fd5b60405162461bcd60e51b8152602060048201526024808201527f69446565705850726f6f6646696e616c3a20636f6e74726163742069732070616044820152631d5cd95960e21b6064820152608490fd5b506001546001600160a01b03163314610776565b346101cc5760003660031901126101cc576000546040516001600160a01b039091168152602090f35b346101cc576020806003193601126101cc57600435908160005260038152600191610c91610c8a84604060002001546112f3565b1515611618565b600052600381528160406000200160405180937f68747470733a2f2f676174657761792e70696e6174612e636c6f75642f6970668483015261732f60f01b6040830152600090835493610ce3856112f3565b94828116908115610d635750600114610d20575b5050610d0c925003601f198101845283611349565b61021f604051928284938452830190611435565b9091506000528360002090846000925b858410610d4b57505050506042610d0c928201018580610cf7565b80548885016042015287945092019185908201610d30565b91505060429250610d0c94915060ff191682840152801515028201018580610cf7565b346101cc5760003660031901126101cc57610dac60018060a01b036000541633146116f6565b600160ff19600654161760065560008051602061179d833981519152602060405160018152a1005b346101cc5760003660031901126101cc576020600554604051908152f35b346101cc576020806003193601126101cc57600435610e0f6115d9565b508060005260038252610e2c610c8a6001604060002001546112f3565b6000526003815260406000209060ff600760405193610e4a8561132d565b80548552610e5a6001820161136c565b8486015260028101546040860152600381015460608601526004810154608086015260018060a01b0360058201541660a0860152600681015460c0860152015416151560e083015261021f60405192828493845283019061145a565b346101cc5760003660031901126101cc57602060ff600654166040519015158152f35b346101cc5760203660031901126101cc5760043560005260036020526020610f086001604060002001546112f3565b1515604051908152f35b346101cc5760203660031901126101cc576004356004548110156101cc57610f3b602091611522565b90546040519160031b1c8152f35b346101cc5760003660031901126101cc57600454610f6681611685565b9060005b818110610f7f576040518061021f85826114c0565b80610f8c61102092611522565b9054600391821b1c60005260ff600760209280845260406000209060405194610fb48661132d565b82548652610fc46001840161136c565b908601526002820154604086015281015460608501526004810154608085015260058101546001600160a01b031660a0850152600681015460c0850152015416151560e082015261101582866116d5565b526102d381856116d5565b610f6a565b346101cc5760003660031901126101cc5761104b60018060a01b036000541633146116f6565b60ff196006541660065560008051602061179d833981519152602060405160008152a1005b346101cc5760003660031901126101cc57600454600090818080805b8481106110b557509060a094916040519485526020850152604084015260608301526080820152f35b6110be81611522565b969054600397881b1c600052602093878552604060002093604051956110e38761132d565b855487526110f36001870161136c565b90870152600285015460408701819052988501546060870190815260048601546080880190815260058701546001600160a01b031660a0890152600687015460c089015260079096015460ff16151560e090970196875298611154916116e9565b975161115f916116e9565b925161116a916116e9565b9251611183575b61117a906115ca565b9490919461108c565b9261119061117a916115ca565b939050611171565b346101cc5760203660031901126101cc576004356000526003602052604060002080546111c76001830161136c565b91600281015490600381015490600481015460018060a01b036005830154169060ff60076006850154940154169361121160405198899889526101008060208b0152890190611435565b9560408801526060870152608086015260a085015260c0840152151560e08301520390f35b346101cc5760003660031901126101cc5760405180600454808352602080930180916004600052846000209060005b868282106112bb57868661127b82880383611349565b604051928392818401908285525180915260408401929160005b8281106112a457505050500390f35b835185528695509381019392810192600101611295565b835485529093019260019283019201611265565b346101cc5760003660031901126101cc576001546001600160a01b03168152602090f35b90600182811c92168015611323575b602083101461130d57565b634e487b7160e01b600052602260045260246000fd5b91607f1691611302565b61010081019081106001600160401b03821117610a1057604052565b601f909101601f19168101906001600160401b03821190821017610a1057604052565b9060405191826000825492611380846112f3565b9081845260019485811690816000146113ef57506001146113ac575b50506113aa92500383611349565b565b9093915060005260209081600020936000915b8183106113d75750506113aa9350820101388061139c565b855488840185015294850194879450918301916113bf565b9150506113aa94506020925060ff191682840152151560051b820101388061139c565b60005b8381106114255750506000910152565b8181015183820152602001611415565b9060209161144e81518092818552858086019101611412565b601f01601f1916010190565b908151815260e08061147b6020850151610100806020870152850190611435565b9360408101516040850152606081015160608501526080810151608085015260018060a01b0360a08201511660a085015260c081015160c08501520151151591015290565b602080820190808352835180925260408301928160408460051b8301019501936000915b8483106114f45750505050505090565b9091929394958480611512600193603f198682030187528a5161145a565b98019301930191949392906114e4565b60045481101561153d57600460005260206000200190600090565b634e487b7160e01b600052603260045260246000fd5b6001600160401b038111610a1057601f01601f191660200190565b1561157557565b60405162461bcd60e51b815260206004820152602760248201527f69446565705850726f6f6646696e616c3a2063616c6c6572206e6f74206175746044820152661a1bdc9a5e995960ca1b6064820152608490fd5b60001981146102de5760010190565b604051906115e68261132d565b8160e0600091828152606060208201528260408201528260608201528260808201528260a08201528260c08201520152565b1561161f57565b60405162461bcd60e51b815260206004820152602160248201527f69446565705850726f6f6646696e616c3a2070726f6f66206e6f7420666f756e6044820152601960fa1b6064820152608490fd5b6001600160401b038111610a105760051b60200190565b9061168f8261166e565b61169c6040519182611349565b82815280926116ad601f199161166e565b019060005b8281106116be57505050565b6020906116c96115d9565b828285010152016116b2565b805182101561153d5760209160051b010190565b919082018092116102de57565b156116fd57565b60405162461bcd60e51b815260206004820152602560248201527f69446565705850726f6f6646696e616c3a2063616c6c6572206973206e6f742060448201526437bbb732b960d91b6064820152608490fd5b1561175757565b60405162461bcd60e51b815260206004820152601e60248201527f69446565705850726f6f6646696e616c3a207a65726f206164647265737300006044820152606490fdfeef37df9624f797913e7585c7f7b5d004ba6704be3c64b0561c157728ccc86985a2646970667358221220a0b1586b76ea2fe2b5e99190e23f63b9d0a079c77964a2e4558749cf9bacce4a64736f6c63430008140033",
  "linkReferences": {},
  "deployedLinkReferences": {}
}